{"abi":[{"type":"constructor","inputs":[{"name":"_paymentToken","type":"address","internalType":"address"},{"name":"_sablier","type":"address","internalType":"contract ISablierV2LockupLinear"}],"stateMutability":"nonpayable"},{"type":"function","name":"DISCOUNTED_PRICE","inputs":[],"outputs":[{"name":"","type":"uint256","internalType":"uint256"}],"stateMutability":"view"},{"type":"function","name":"FULL_PRICE","inputs":[],"outputs":[{"name":"","type":"uint256","internalType":"uint256"}],"stateMutability":"view"},{"type":"function","name":"MAX_SUPPLY","inputs":[],"outputs":[{"name":"","type":"uint256","internalType":"uint256"}],"stateMutability":"view"},{"type":"function","name":"advancePhase","inputs":[],"outputs":[],"stateMutability":"nonpayable"},{"type":"function","name":"approve","inputs":[{"name":"to","type":"address","internalType":"address"},{"name":"tokenId","type":"uint256","internalType":"uint256"}],"outputs":[],"stateMutability":"nonpayable"},{"type":"function","name":"balanceOf","inputs":[{"name":"owner","type":"address","internalType":"address"}],"outputs":[{"name":"","type":"uint256","internalType":"uint256"}],"stateMutability":"view"},{"type":"function","name":"currentPhase","inputs":[],"outputs":[{"name":"","type":"uint8","internalType":"uint8"}],"stateMutability":"view"},{"type":"function","name":"currentTokenID","inputs":[],"outputs":[{"name":"","type":"uint256","internalType":"uint256"}],"stateMutability":"view"},{"type":"function","name":"getApproved","inputs":[{"name":"tokenId","type":"uint256","internalType":"uint256"}],"outputs":[{"name":"","type":"address","internalType":"address"}],"stateMutability":"view"},{"type":"function","name":"hasMinted","inputs":[{"name":"","type":"address","internalType":"address"}],"outputs":[{"name":"","type":"bool","internalType":"bool"}],"stateMutability":"view"},{"type":"function","name":"isApprovedForAll","inputs":[{"name":"owner","type":"address","internalType":"address"},{"name":"operator","type":"address","internalType":"address"}],"outputs":[{"name":"","type":"bool","internalType":"bool"}],"stateMutability":"view"},{"type":"function","name":"mintPhase1","inputs":[{"name":"merkleProof","type":"bytes32[]","internalType":"bytes32[]"}],"outputs":[],"stateMutability":"nonpayable"},{"type":"function","name":"mintPhase2","inputs":[{"name":"merkleProof","type":"bytes32[]","internalType":"bytes32[]"},{"name":"signature","type":"bytes","internalType":"bytes"}],"outputs":[],"stateMutability":"nonpayable"},{"type":"function","name":"mintPhase3","inputs":[],"outputs":[],"stateMutability":"nonpayable"},{"type":"function","name":"name","inputs":[],"outputs":[{"name":"","type":"string","internalType":"string"}],"stateMutability":"view"},{"type":"function","name":"owner","inputs":[],"outputs":[{"name":"","type":"address","internalType":"address"}],"stateMutability":"view"},{"type":"function","name":"ownerOf","inputs":[{"name":"tokenId","type":"uint256","internalType":"uint256"}],"outputs":[{"name":"","type":"address","internalType":"address"}],"stateMutability":"view"},{"type":"function","name":"paymentToken","inputs":[],"outputs":[{"name":"","type":"address","internalType":"contract PaymentToken"}],"stateMutability":"view"},{"type":"function","name":"phase1MerkleRoot","inputs":[],"outputs":[{"name":"","type":"bytes32","internalType":"bytes32"}],"stateMutability":"view"},{"type":"function","name":"phase2MerkleRoot","inputs":[],"outputs":[{"name":"","type":"bytes32","internalType":"bytes32"}],"stateMutability":"view"},{"type":"function","name":"renounceOwnership","inputs":[],"outputs":[],"stateMutability":"nonpayable"},{"type":"function","name":"sablier","inputs":[],"outputs":[{"name":"","type":"address","internalType":"contract ISablierV2LockupLinear"}],"stateMutability":"view"},{"type":"function","name":"sablierVesting","inputs":[],"outputs":[{"name":"","type":"uint256","internalType":"uint256"}],"stateMutability":"nonpayable"},{"type":"function","name":"safeTransferFrom","inputs":[{"name":"from","type":"address","internalType":"address"},{"name":"to","type":"address","internalType":"address"},{"name":"tokenId","type":"uint256","internalType":"uint256"}],"outputs":[],"stateMutability":"nonpayable"},{"type":"function","name":"safeTransferFrom","inputs":[{"name":"from","type":"address","internalType":"address"},{"name":"to","type":"address","internalType":"address"},{"name":"tokenId","type":"uint256","internalType":"uint256"},{"name":"data","type":"bytes","internalType":"bytes"}],"outputs":[],"stateMutability":"nonpayable"},{"type":"function","name":"setApprovalForAll","inputs":[{"name":"operator","type":"address","internalType":"address"},{"name":"approved","type":"bool","internalType":"bool"}],"outputs":[],"stateMutability":"nonpayable"},{"type":"function","name":"setPhase1MerkleRoot","inputs":[{"name":"newRoot","type":"bytes32","internalType":"bytes32"}],"outputs":[],"stateMutability":"nonpayable"},{"type":"function","name":"setPhase2MerkleRoot","inputs":[{"name":"newRoot","type":"bytes32","internalType":"bytes32"}],"outputs":[],"stateMutability":"nonpayable"},{"type":"function","name":"supportsInterface","inputs":[{"name":"interfaceId","type":"bytes4","internalType":"bytes4"}],"outputs":[{"name":"","type":"bool","internalType":"bool"}],"stateMutability":"view"},{"type":"function","name":"symbol","inputs":[],"outputs":[{"name":"","type":"string","internalType":"string"}],"stateMutability":"view"},{"type":"function","name":"tokenURI","inputs":[{"name":"tokenId","type":"uint256","internalType":"uint256"}],"outputs":[{"name":"","type":"string","internalType":"string"}],"stateMutability":"view"},{"type":"function","name":"transferFrom","inputs":[{"name":"from","type":"address","internalType":"address"},{"name":"to","type":"address","internalType":"address"},{"name":"tokenId","type":"uint256","internalType":"uint256"}],"outputs":[],"stateMutability":"nonpayable"},{"type":"function","name":"transferOwnership","inputs":[{"name":"newOwner","type":"address","internalType":"address"}],"outputs":[],"stateMutability":"nonpayable"},{"type":"function","name":"usedSignatures","inputs":[{"name":"","type":"bytes","internalType":"bytes"}],"outputs":[{"name":"","type":"bool","internalType":"bool"}],"stateMutability":"view"},{"type":"event","name":"Approval","inputs":[{"name":"owner","type":"address","indexed":true,"internalType":"address"},{"name":"approved","type":"address","indexed":true,"internalType":"address"},{"name":"tokenId","type":"uint256","indexed":true,"internalType":"uint256"}],"anonymous":false},{"type":"event","name":"ApprovalForAll","inputs":[{"name":"owner","type":"address","indexed":true,"internalType":"address"},{"name":"operator","type":"address","indexed":true,"internalType":"address"},{"name":"approved","type":"bool","indexed":false,"internalType":"bool"}],"anonymous":false},{"type":"event","name":"NFTMinted","inputs":[{"name":"minter","type":"address","indexed":true,"internalType":"address"},{"name":"tokenId","type":"uint256","indexed":true,"internalType":"uint256"},{"name":"price","type":"uint256","indexed":false,"internalType":"uint256"}],"anonymous":false},{"type":"event","name":"OwnershipTransferred","inputs":[{"name":"previousOwner","type":"address","indexed":true,"internalType":"address"},{"name":"newOwner","type":"address","indexed":true,"internalType":"address"}],"anonymous":false},{"type":"event","name":"PhaseAdvanced","inputs":[{"name":"newPhase","type":"uint256","indexed":false,"internalType":"uint256"}],"anonymous":false},{"type":"event","name":"Transfer","inputs":[{"name":"from","type":"address","indexed":true,"internalType":"address"},{"name":"to","type":"address","indexed":true,"internalType":"address"},{"name":"tokenId","type":"uint256","indexed":true,"internalType":"uint256"}],"anonymous":false},{"type":"event","name":"Withdraw","inputs":[{"name":"","type":"address","indexed":false,"internalType":"address"},{"name":"","type":"uint256","indexed":false,"internalType":"uint256"}],"anonymous":false},{"type":"error","name":"ECDSAInvalidSignature","inputs":[]},{"type":"error","name":"ECDSAInvalidSignatureLength","inputs":[{"name":"length","type":"uint256","internalType":"uint256"}]},{"type":"error","name":"ECDSAInvalidSignatureS","inputs":[{"name":"s","type":"bytes32","internalType":"bytes32"}]},{"type":"error","name":"ERC721IncorrectOwner","inputs":[{"name":"sender","type":"address","internalType":"address"},{"name":"tokenId","type":"uint256","internalType":"uint256"},{"name":"owner","type":"address","internalType":"address"}]},{"type":"error","name":"ERC721InsufficientApproval","inputs":[{"name":"operator","type":"address","internalType":"address"},{"name":"tokenId","type":"uint256","internalType":"uint256"}]},{"type":"error","name":"ERC721InvalidApprover","inputs":[{"name":"approver","type":"address","internalType":"address"}]},{"type":"error","name":"ERC721InvalidOperator","inputs":[{"name":"operator","type":"address","internalType":"address"}]},{"type":"error","name":"ERC721InvalidOwner","inputs":[{"name":"owner","type":"address","internalType":"address"}]},{"type":"error","name":"ERC721InvalidReceiver","inputs":[{"name":"receiver","type":"address","internalType":"address"}]},{"type":"error","name":"ERC721InvalidSender","inputs":[{"name":"sender","type":"address","internalType":"address"}]},{"type":"error","name":"ERC721NonexistentToken","inputs":[{"name":"tokenId","type":"uint256","internalType":"uint256"}]},{"type":"error","name":"OwnableInvalidOwner","inputs":[{"name":"owner","type":"address","internalType":"address"}]},{"type":"error","name":"OwnableUnauthorizedAccount","inputs":[{"name":"account","type":"address","internalType":"address"}]},{"type":"error","name":"ReentrancyGuardReentrantCall","inputs":[]}],"bytecode":{"object":"0x608060405234801561000f575f80fd5b50604051614a7e380380614a7e83398181016040528101906100319190610345565b336040518060400160405280600d81526020017f4d756c7469556e6974794e4654000000000000000000000000000000000000008152506040518060400160405280600381526020017f4d554e0000000000000000000000000000000000000000000000000000000000815250815f90816100ac91906105bd565b5080600190816100bc91906105bd565b5050505f73ffffffffffffffffffffffffffffffffffffffff168173ffffffffffffffffffffffffffffffffffffffff160361012f575f6040517f1e4fbdf7000000000000000000000000000000000000000000000000000000008152600401610126919061069b565b60405180910390fd5b61013e816101e960201b60201c565b50600160078190555081600e5f6101000a81548173ffffffffffffffffffffffffffffffffffffffff021916908373ffffffffffffffffffffffffffffffffffffffff16021790555080600d5f6101000a81548173ffffffffffffffffffffffffffffffffffffffff021916908373ffffffffffffffffffffffffffffffffffffffff1602179055506001600b5f6101000a81548160ff021916908360ff16021790555050506106b4565b5f60065f9054906101000a900473ffffffffffffffffffffffffffffffffffffffff1690508160065f6101000a81548173ffffffffffffffffffffffffffffffffffffffff021916908373ffffffffffffffffffffffffffffffffffffffff1602179055508173ffffffffffffffffffffffffffffffffffffffff168173ffffffffffffffffffffffffffffffffffffffff167f8be0079c531659141344cd1fd0a4f28419497f9722a3daafe3b4186f6b6457e060405160405180910390a35050565b5f80fd5b5f73ffffffffffffffffffffffffffffffffffffffff82169050919050565b5f6102d9826102b0565b9050919050565b6102e9816102cf565b81146102f3575f80fd5b50565b5f81519050610304816102e0565b92915050565b5f610314826102cf565b9050919050565b6103248161030a565b811461032e575f80fd5b50565b5f8151905061033f8161031b565b92915050565b5f806040838503121561035b5761035a6102ac565b5b5f610368858286016102f6565b925050602061037985828601610331565b9150509250929050565b5f81519050919050565b7f4e487b71000000000000000000000000000000000000000000000000000000005f52604160045260245ffd5b7f4e487b71000000000000000000000000000000000000000000000000000000005f52602260045260245ffd5b5f60028204905060018216806103fe57607f821691505b602082108103610411576104106103ba565b5b50919050565b5f819050815f5260205f209050919050565b5f6020601f8301049050919050565b5f82821b905092915050565b5f600883026104737fffffffffffffffffffffffffffffffffffffffffffffffffffffffffffffffff82610438565b61047d8683610438565b95508019841693508086168417925050509392505050565b5f819050919050565b5f819050919050565b5f6104c16104bc6104b784610495565b61049e565b610495565b9050919050565b5f819050919050565b6104da836104a7565b6104ee6104e6826104c8565b848454610444565b825550505050565b5f90565b6105026104f6565b61050d8184846104d1565b505050565b5b81811015610530576105255f826104fa565b600181019050610513565b5050565b601f8211156105755761054681610417565b61054f84610429565b8101602085101561055e578190505b61057261056a85610429565b830182610512565b50505b505050565b5f82821c905092915050565b5f6105955f198460080261057a565b1980831691505092915050565b5f6105ad8383610586565b9150826002028217905092915050565b6105c682610383565b67ffffffffffffffff8111156105df576105de61038d565b5b6105e982546103e7565b6105f4828285610534565b5f60209050601f831160018114610625575f8415610613578287015190505b61061d85826105a2565b865550610684565b601f19841661063386610417565b5f5b8281101561065a57848901518255600182019150602085019450602081019050610635565b868310156106775784890151610673601f891682610586565b8355505b6001600288020188555050505b505050505050565b610695816102cf565b82525050565b5f6020820190506106ae5f83018461068c565b92915050565b6143bd806106c15f395ff3fe608060405234801561000f575f80fd5b5060043610610204575f3560e01c80636352211e11610118578063ab7baf0b116100ab578063be25a7181161007a578063be25a7181461058e578063c87b56dd14610598578063e949580e146105c8578063e985e9c5146105f8578063f2fde38b1461062857610204565b8063ab7baf0b1461051a578063b16bccc014610536578063b88d4fde14610554578063bb62115e1461057057610204565b80638da5cb5b116100e75780638da5cb5b146104a657806395d89b41146104c457806397119780146104e2578063a22cb465146104fe57610204565b80636352211e1461041e57806370a082311461044e578063715018a61461047e5780638cc6d1621461048857610204565b806323b872dd1161019b57806338e21cce1161016a57806338e21cce1461037857806342842e0e146103a8578063432baad3146103c4578063482879aa146103e25780635b4404351461040057610204565b806323b872dd146103045780633013ce2914610320578063326409631461033e57806332cb6b0c1461035a57610204565b8063081812fc116101d7578063081812fc1461027e578063095ea7b3146102ae5780630b40cc99146102ca57806317b3ee1c146102e857610204565b806301ffc9a71461020857806304e0675814610238578063055ad42e1461024257806306fdde0314610260575b5f80fd5b610222600480360381019061021d9190612f7b565b610644565b60405161022f9190612fc0565b60405180910390f35b610240610725565b005b61024a610954565b6040516102579190612ff4565b60405180910390f35b610268610966565b604051610275919061307d565b60405180910390f35b610298600480360381019061029391906130d0565b6109f5565b6040516102a5919061313a565b60405180910390f35b6102c860048036038101906102c3919061317d565b610a10565b005b6102d2610a26565b6040516102df91906131ca565b60405180910390f35b61030260048036038101906102fd9190613216565b610a33565b005b61031e60048036038101906103199190613241565b610a45565b005b610328610b44565b60405161033591906132ec565b60405180910390f35b61035860048036038101906103539190613366565b610b69565b005b610362610d63565b60405161036f91906131ca565b60405180910390f35b610392600480360381019061038d91906133b1565b610d69565b60405161039f9190612fc0565b60405180910390f35b6103c260048036038101906103bd9190613241565b610d86565b005b6103cc610da5565b6040516103d991906133eb565b60405180910390f35b6103ea610dab565b6040516103f79190613424565b60405180910390f35b610408610dd0565b60405161041591906133eb565b60405180910390f35b610438600480360381019061043391906130d0565b610dd6565b604051610445919061313a565b60405180910390f35b610468600480360381019061046391906133b1565b610de7565b60405161047591906131ca565b60405180910390f35b610486610e9d565b005b610490610eb0565b60405161049d91906131ca565b60405180910390f35b6104ae610ebd565b6040516104bb919061313a565b60405180910390f35b6104cc610ee5565b6040516104d9919061307d565b60405180910390f35b6104fc60048036038101906104f79190613492565b610f75565b005b6105186004803603810190610513919061353a565b611417565b005b610534600480360381019061052f9190613216565b61142d565b005b61053e61143f565b60405161054b91906131ca565b60405180910390f35b61056e600480360381019061056991906136a0565b611832565b005b61057861184f565b60405161058591906131ca565b60405180910390f35b610596611855565b005b6105b260048036038101906105ad91906130d0565b611927565b6040516105bf919061307d565b60405180910390f35b6105e260048036038101906105dd9190613720565b61198d565b6040516105ef9190612fc0565b60405180910390f35b610612600480360381019061060d9190613767565b6119c2565b60405161061f9190612fc0565b60405180910390f35b610642600480360381019061063d91906133b1565b611a50565b005b5f7f80ac58cd000000000000000000000000000000000000000000000000000000007bffffffffffffffffffffffffffffffffffffffffffffffffffffffff1916827bffffffffffffffffffffffffffffffffffffffffffffffffffffffff1916148061070e57507f5b5e139f000000000000000000000000000000000000000000000000000000007bffffffffffffffffffffffffffffffffffffffffffffffffffffffff1916827bffffffffffffffffffffffffffffffffffffffffffffffffffffffff1916145b8061071e575061071d82611ad4565b5b9050919050565b61072d611b3d565b6003600b5f9054906101000a900460ff1660ff1614610781576040517f08c379a0000000000000000000000000000000000000000000000000000000008152600401610778906137ef565b60405180910390fd5b600f5f3373ffffffffffffffffffffffffffffffffffffffff1673ffffffffffffffffffffffffffffffffffffffff1681526020019081526020015f205f9054906101000a900460ff161561080b576040517f08c379a000000000000000000000000000000000000000000000000000000000815260040161080290613857565b60405180910390fd5b612710600a5410610851576040517f08c379a0000000000000000000000000000000000000000000000000000000008152600401610848906138bf565b60405180910390fd5b600e5f9054906101000a900473ffffffffffffffffffffffffffffffffffffffff1673ffffffffffffffffffffffffffffffffffffffff166323b872dd3330683635c9adc5dea000006040518463ffffffff1660e01b81526004016108b8939291906138dd565b6020604051808303815f875af11580156108d4573d5f803e3d5ffd5b505050506040513d601f19601f820116820180604052508101906108f89190613926565b610937576040517f08c379a000000000000000000000000000000000000000000000000000000000815260040161092e9061399b565b60405180910390fd5b61094a33683635c9adc5dea00000611b83565b610952611c4f565b565b600b5f9054906101000a900460ff1681565b60605f8054610974906139e6565b80601f01602080910402602001604051908101604052809291908181526020018280546109a0906139e6565b80156109eb5780601f106109c2576101008083540402835291602001916109eb565b820191905f5260205f20905b8154815290600101906020018083116109ce57829003601f168201915b5050505050905090565b5f6109ff82611c59565b50610a0982611cdf565b9050919050565b610a228282610a1d611d18565b611d1f565b5050565b683635c9adc5dea0000081565b610a3b611d31565b8060088190555050565b5f73ffffffffffffffffffffffffffffffffffffffff168273ffffffffffffffffffffffffffffffffffffffff1603610ab5575f6040517f64a0ae92000000000000000000000000000000000000000000000000000000008152600401610aac919061313a565b60405180910390fd5b5f610ac88383610ac3611d18565b611db8565b90508373ffffffffffffffffffffffffffffffffffffffff168173ffffffffffffffffffffffffffffffffffffffff1614610b3e578382826040517f64283d7b000000000000000000000000000000000000000000000000000000008152600401610b3593929190613a16565b60405180910390fd5b50505050565b600e5f9054906101000a900473ffffffffffffffffffffffffffffffffffffffff1681565b610b71611b3d565b6001600b5f9054906101000a900460ff1660ff1614610bc5576040517f08c379a0000000000000000000000000000000000000000000000000000000008152600401610bbc90613a95565b60405180910390fd5b600f5f3373ffffffffffffffffffffffffffffffffffffffff1673ffffffffffffffffffffffffffffffffffffffff1681526020019081526020015f205f9054906101000a900460ff1615610c4f576040517f08c379a0000000000000000000000000000000000000000000000000000000008152600401610c4690613857565b60405180910390fd5b612710600a541115610c96576040517f08c379a0000000000000000000000000000000000000000000000000000000008152600401610c8d906138bf565b60405180910390fd5b5f33604051602001610ca89190613af8565b604051602081830303815290604052805190602001209050610d0d8383808060200260200160405190810160405280939291908181526020018383602002808284375f81840152601f19601f8201169050808301925050505050505060085483611fc3565b610d4c576040517f08c379a0000000000000000000000000000000000000000000000000000000008152600401610d4390613b5c565b60405180910390fd5b610d56335f611b83565b50610d5f611c4f565b5050565b61271081565b600f602052805f5260405f205f915054906101000a900460ff1681565b610da083838360405180602001604052805f815250611832565b505050565b60085481565b600d5f9054906101000a900473ffffffffffffffffffffffffffffffffffffffff1681565b60095481565b5f610de082611c59565b9050919050565b5f8073ffffffffffffffffffffffffffffffffffffffff168273ffffffffffffffffffffffffffffffffffffffff1603610e58575f6040517f89c62b64000000000000000000000000000000000000000000000000000000008152600401610e4f919061313a565b60405180910390fd5b60035f8373ffffffffffffffffffffffffffffffffffffffff1673ffffffffffffffffffffffffffffffffffffffff1681526020019081526020015f20549050919050565b610ea5611d31565b610eae5f611fd9565b565b681b1ae4d6e2ef50000081565b5f60065f9054906101000a900473ffffffffffffffffffffffffffffffffffffffff16905090565b606060018054610ef4906139e6565b80601f0160208091040260200160405190810160405280929190818152602001828054610f20906139e6565b8015610f6b5780601f10610f4257610100808354040283529160200191610f6b565b820191905f5260205f20905b815481529060010190602001808311610f4e57829003601f168201915b5050505050905090565b610f7d611b3d565b6002600b5f9054906101000a900460ff1660ff1614610fd1576040517f08c379a0000000000000000000000000000000000000000000000000000000008152600401610fc890613bc4565b60405180910390fd5b600f5f3373ffffffffffffffffffffffffffffffffffffffff1673ffffffffffffffffffffffffffffffffffffffff1681526020019081526020015f205f9054906101000a900460ff161561105b576040517f08c379a000000000000000000000000000000000000000000000000000000000815260040161105290613857565b60405180910390fd5b612710600a5411156110a2576040517f08c379a0000000000000000000000000000000000000000000000000000000008152600401611099906138bf565b60405180910390fd5b601082826040516110b4929190613c10565b90815260200160405180910390205f9054906101000a900460ff161561110f576040517f08c379a000000000000000000000000000000000000000000000000000000000815260040161110690613c72565b60405180910390fd5b5f33681b1ae4d6e2ef50000060405160200161112c929190613cb0565b6040516020818303038152906040528051906020012090506111918585808060200260200160405190810160405280939291908181526020018383602002808284375f81840152601f19601f8201169050808301925050505050505060095483611fc3565b6111d0576040517f08c379a00000000000000000000000000000000000000000000000000000000081526004016111c790613b5c565b60405180910390fd5b5f336040516020016111e29190613d2f565b6040516020818303038152906040528051906020012090505f6112048261209c565b90505f61125d86868080601f0160208091040260200160405190810160405280939291908181526020018383808284375f81840152601f19601f82011690508083019250505050505050836120cf90919063ffffffff16565b9050611267610ebd565b73ffffffffffffffffffffffffffffffffffffffff168173ffffffffffffffffffffffffffffffffffffffff16146112d4576040517f08c379a00000000000000000000000000000000000000000000000000000000081526004016112cb90613d9e565b60405180910390fd5b6001601087876040516112e8929190613c10565b90815260200160405180910390205f6101000a81548160ff021916908315150217905550600e5f9054906101000a900473ffffffffffffffffffffffffffffffffffffffff1673ffffffffffffffffffffffffffffffffffffffff166323b872dd3330681b1ae4d6e2ef5000006040518463ffffffff1660e01b8152600401611373939291906138dd565b6020604051808303815f875af115801561138f573d5f803e3d5ffd5b505050506040513d601f19601f820116820180604052508101906113b39190613926565b6113f2576040517f08c379a00000000000000000000000000000000000000000000000000000000081526004016113e99061399b565b60405180910390fd5b61140533681b1ae4d6e2ef500000611b83565b50505050611411611c4f565b50505050565b611429611422611d18565b83836120f9565b5050565b611435611d31565b8060098190555050565b5f611448611d31565b6004600b5f9054906101000a900460ff1660ff161461149c576040517f08c379a000000000000000000000000000000000000000000000000000000000815260040161149390613e06565b60405180910390fd5b5f600e5f9054906101000a900473ffffffffffffffffffffffffffffffffffffffff1673ffffffffffffffffffffffffffffffffffffffff166370a08231306040518263ffffffff1660e01b81526004016114f7919061313a565b602060405180830381865afa158015611512573d5f803e3d5ffd5b505050506040513d601f19601f820116820180604052508101906115369190613e38565b9050600e5f9054906101000a900473ffffffffffffffffffffffffffffffffffffffff1673ffffffffffffffffffffffffffffffffffffffff1663095ea7b3600d5f9054906101000a900473ffffffffffffffffffffffffffffffffffffffff16836040518363ffffffff1660e01b81526004016115b5929190613e63565b6020604051808303815f875af11580156115d1573d5f803e3d5ffd5b505050506040513d601f19601f820116820180604052508101906115f59190613926565b506115fe612e1e565b30815f019073ffffffffffffffffffffffffffffffffffffffff16908173ffffffffffffffffffffffffffffffffffffffff168152505061163d610ebd565b816020019073ffffffffffffffffffffffffffffffffffffffff16908173ffffffffffffffffffffffffffffffffffffffff16815250508181604001906fffffffffffffffffffffffffffffffff1690816fffffffffffffffffffffffffffffffff1681525050600e5f9054906101000a900473ffffffffffffffffffffffffffffffffffffffff16816060019073ffffffffffffffffffffffffffffffffffffffff16908173ffffffffffffffffffffffffffffffffffffffff16815250505f81608001901515908115158152505060018160a001901515908115158152505060405180604001604052806301dfe20064ffffffffff1681526020016303bfc40064ffffffffff168152508160c0018190525060405180604001604052805f73ffffffffffffffffffffffffffffffffffffffff1681526020016117815f612262565b8152508160e00181905250600d5f9054906101000a900473ffffffffffffffffffffffffffffffffffffffff1673ffffffffffffffffffffffffffffffffffffffff1663ab167ccc826040518263ffffffff1660e01b81526004016117e6919061403c565b6020604051808303815f875af1158015611802573d5f803e3d5ffd5b505050506040513d601f19601f820116820180604052508101906118269190613e38565b600c8190559250505090565b61183d848484610a45565b6118498484848461226b565b50505050565b600a5481565b6004600b5f9054906101000a900460ff1660ff16106118a9576040517f08c379a00000000000000000000000000000000000000000000000000000000081526004016118a0906140a0565b60405180910390fd5b600b5f81819054906101000a900460ff16809291906118c7906140eb565b91906101000a81548160ff021916908360ff160217905550507ff6c2b6b29e9d5ef64d43f4e1e2aa98730cd07a0ed1930f241cd1557957eed753600b5f9054906101000a900460ff1660405161191d9190614143565b60405180910390a1565b606061193282611c59565b505f61193c61241d565b90505f81511161195a5760405180602001604052805f815250611985565b8061196484612433565b60405160200161197592919061418c565b6040516020818303038152906040525b915050919050565b6010818051602081018201805184825260208301602085012081835280955050505050505f915054906101000a900460ff1681565b5f60055f8473ffffffffffffffffffffffffffffffffffffffff1673ffffffffffffffffffffffffffffffffffffffff1681526020019081526020015f205f8373ffffffffffffffffffffffffffffffffffffffff1673ffffffffffffffffffffffffffffffffffffffff1681526020019081526020015f205f9054906101000a900460ff16905092915050565b611a58611d31565b5f73ffffffffffffffffffffffffffffffffffffffff168173ffffffffffffffffffffffffffffffffffffffff1603611ac8575f6040517f1e4fbdf7000000000000000000000000000000000000000000000000000000008152600401611abf919061313a565b60405180910390fd5b611ad181611fd9565b50565b5f7f01ffc9a7000000000000000000000000000000000000000000000000000000007bffffffffffffffffffffffffffffffffffffffffffffffffffffffff1916827bffffffffffffffffffffffffffffffffffffffffffffffffffffffff1916149050919050565b600260075403611b79576040517f3ee5aeb500000000000000000000000000000000000000000000000000000000815260040160405180910390fd5b6002600781905550565b5f6001600a54611b9391906141af565b905080600a819055506001600f5f8573ffffffffffffffffffffffffffffffffffffffff1673ffffffffffffffffffffffffffffffffffffffff1681526020019081526020015f205f6101000a81548160ff021916908315150217905550611bfb83826124fd565b808373ffffffffffffffffffffffffffffffffffffffff167f3a8a89b59a31c39a36febecb987e0657ab7b7c73b60ebacb44dcb9886c2d5c8a84604051611c4291906131ca565b60405180910390a3505050565b6001600781905550565b5f80611c648361251a565b90505f73ffffffffffffffffffffffffffffffffffffffff168173ffffffffffffffffffffffffffffffffffffffff1603611cd657826040517f7e273289000000000000000000000000000000000000000000000000000000008152600401611ccd91906131ca565b60405180910390fd5b80915050919050565b5f60045f8381526020019081526020015f205f9054906101000a900473ffffffffffffffffffffffffffffffffffffffff169050919050565b5f33905090565b611d2c8383836001612553565b505050565b611d39611d18565b73ffffffffffffffffffffffffffffffffffffffff16611d57610ebd565b73ffffffffffffffffffffffffffffffffffffffff1614611db657611d7a611d18565b6040517f118cdaa7000000000000000000000000000000000000000000000000000000008152600401611dad919061313a565b60405180910390fd5b565b5f80611dc38461251a565b90505f73ffffffffffffffffffffffffffffffffffffffff168373ffffffffffffffffffffffffffffffffffffffff1614611e0457611e03818486612712565b5b5f73ffffffffffffffffffffffffffffffffffffffff168173ffffffffffffffffffffffffffffffffffffffff1614611e8f57611e435f855f80612553565b600160035f8373ffffffffffffffffffffffffffffffffffffffff1673ffffffffffffffffffffffffffffffffffffffff1681526020019081526020015f205f82825403925050819055505b5f73ffffffffffffffffffffffffffffffffffffffff168573ffffffffffffffffffffffffffffffffffffffff1614611f0e57600160035f8773ffffffffffffffffffffffffffffffffffffffff1673ffffffffffffffffffffffffffffffffffffffff1681526020019081526020015f205f82825401925050819055505b8460025f8681526020019081526020015f205f6101000a81548173ffffffffffffffffffffffffffffffffffffffff021916908373ffffffffffffffffffffffffffffffffffffffff160217905550838573ffffffffffffffffffffffffffffffffffffffff168273ffffffffffffffffffffffffffffffffffffffff167fddf252ad1be2c89b69c2b068fc378daa952ba7f163c4a11628f55a4df523b3ef60405160405180910390a4809150509392505050565b5f82611fcf85846127d5565b1490509392505050565b5f60065f9054906101000a900473ffffffffffffffffffffffffffffffffffffffff1690508160065f6101000a81548173ffffffffffffffffffffffffffffffffffffffff021916908373ffffffffffffffffffffffffffffffffffffffff1602179055508173ffffffffffffffffffffffffffffffffffffffff168173ffffffffffffffffffffffffffffffffffffffff167f8be0079c531659141344cd1fd0a4f28419497f9722a3daafe3b4186f6b6457e060405160405180910390a35050565b5f7f19457468657265756d205369676e6564204d6573736167653a0a3332000000005f5281601c52603c5f209050919050565b5f805f806120dd8686612823565b9250925092506120ed8282612878565b82935050505092915050565b5f73ffffffffffffffffffffffffffffffffffffffff168273ffffffffffffffffffffffffffffffffffffffff160361216957816040517f5b08ba18000000000000000000000000000000000000000000000000000000008152600401612160919061313a565b60405180910390fd5b8060055f8573ffffffffffffffffffffffffffffffffffffffff1673ffffffffffffffffffffffffffffffffffffffff1681526020019081526020015f205f8473ffffffffffffffffffffffffffffffffffffffff1673ffffffffffffffffffffffffffffffffffffffff1681526020019081526020015f205f6101000a81548160ff0219169083151502179055508173ffffffffffffffffffffffffffffffffffffffff168373ffffffffffffffffffffffffffffffffffffffff167f17307eab39ab6107e8899845ad3d59bd9653f200f220920489ca2b5937696c31836040516122559190612fc0565b60405180910390a3505050565b5f819050919050565b5f8373ffffffffffffffffffffffffffffffffffffffff163b1115612417578273ffffffffffffffffffffffffffffffffffffffff1663150b7a026122ae611d18565b8685856040518563ffffffff1660e01b81526004016122d09493929190614234565b6020604051808303815f875af192505050801561230b57506040513d601f19601f820116820180604052508101906123089190614292565b60015b61238c573d805f8114612339576040519150601f19603f3d011682016040523d82523d5f602084013e61233e565b606091505b505f81510361238457836040517f64a0ae9200000000000000000000000000000000000000000000000000000000815260040161237b919061313a565b60405180910390fd5b805181602001fd5b63150b7a0260e01b7bffffffffffffffffffffffffffffffffffffffffffffffffffffffff1916817bffffffffffffffffffffffffffffffffffffffffffffffffffffffff19161461241557836040517f64a0ae9200000000000000000000000000000000000000000000000000000000815260040161240c919061313a565b60405180910390fd5b505b50505050565b606060405180602001604052805f815250905090565b60605f6001612441846129da565b0190505f8167ffffffffffffffff81111561245f5761245e61357c565b5b6040519080825280601f01601f1916602001820160405280156124915781602001600182028036833780820191505090505b5090505f82602001820190505b6001156124f2578080600190039150507f3031323334353637383961626364656600000000000000000000000000000000600a86061a8153600a85816124e7576124e66142bd565b5b0494505f850361249e575b819350505050919050565b612516828260405180602001604052805f815250612b2b565b5050565b5f60025f8381526020019081526020015f205f9054906101000a900473ffffffffffffffffffffffffffffffffffffffff169050919050565b808061258b57505f73ffffffffffffffffffffffffffffffffffffffff168273ffffffffffffffffffffffffffffffffffffffff1614155b156126bd575f61259a84611c59565b90505f73ffffffffffffffffffffffffffffffffffffffff168373ffffffffffffffffffffffffffffffffffffffff161415801561260457508273ffffffffffffffffffffffffffffffffffffffff168173ffffffffffffffffffffffffffffffffffffffff1614155b8015612617575061261581846119c2565b155b1561265957826040517fa9fbf51f000000000000000000000000000000000000000000000000000000008152600401612650919061313a565b60405180910390fd5b81156126bb57838573ffffffffffffffffffffffffffffffffffffffff168273ffffffffffffffffffffffffffffffffffffffff167f8c5be1e5ebec7d5bd14f71427d1e84f3dd0314c0f7b2291e5b200ac8c7c3b92560405160405180910390a45b505b8360045f8581526020019081526020015f205f6101000a81548173ffffffffffffffffffffffffffffffffffffffff021916908373ffffffffffffffffffffffffffffffffffffffff16021790555050505050565b61271d838383612b46565b6127d0575f73ffffffffffffffffffffffffffffffffffffffff168373ffffffffffffffffffffffffffffffffffffffff160361279157806040517f7e27328900000000000000000000000000000000000000000000000000000000815260040161278891906131ca565b60405180910390fd5b81816040517f177e802f0000000000000000000000000000000000000000000000000000000081526004016127c7929190613e63565b60405180910390fd5b505050565b5f808290505f5b845181101561281857612809828683815181106127fc576127fb6142ea565b5b6020026020010151612c06565b915080806001019150506127dc565b508091505092915050565b5f805f6041845103612863575f805f602087015192506040870151915060608701515f1a905061285588828585612c30565b955095509550505050612871565b5f600285515f1b9250925092505b9250925092565b5f600381111561288b5761288a614317565b5b82600381111561289e5761289d614317565b5b03156129d657600160038111156128b8576128b7614317565b5b8260038111156128cb576128ca614317565b5b03612902576040517ff645eedf00000000000000000000000000000000000000000000000000000000815260040160405180910390fd5b6002600381111561291657612915614317565b5b82600381111561292957612928614317565b5b0361296d57805f1c6040517ffce698f700000000000000000000000000000000000000000000000000000000815260040161296491906131ca565b60405180910390fd5b6003808111156129805761297f614317565b5b82600381111561299357612992614317565b5b036129d557806040517fd78bce0c0000000000000000000000000000000000000000000000000000000081526004016129cc91906133eb565b60405180910390fd5b5b5050565b5f805f90507a184f03e93ff9f4daa797ed6e38ed64bf6a1f0100000000000000008310612a36577a184f03e93ff9f4daa797ed6e38ed64bf6a1f0100000000000000008381612a2c57612a2b6142bd565b5b0492506040810190505b6d04ee2d6d415b85acef81000000008310612a73576d04ee2d6d415b85acef81000000008381612a6957612a686142bd565b5b0492506020810190505b662386f26fc100008310612aa257662386f26fc100008381612a9857612a976142bd565b5b0492506010810190505b6305f5e1008310612acb576305f5e1008381612ac157612ac06142bd565b5b0492506008810190505b6127108310612af0576127108381612ae657612ae56142bd565b5b0492506004810190505b60648310612b135760648381612b0957612b086142bd565b5b0492506002810190505b600a8310612b22576001810190505b80915050919050565b612b358383612d17565b612b415f84848461226b565b505050565b5f8073ffffffffffffffffffffffffffffffffffffffff168373ffffffffffffffffffffffffffffffffffffffff1614158015612bfd57508273ffffffffffffffffffffffffffffffffffffffff168473ffffffffffffffffffffffffffffffffffffffff161480612bbe5750612bbd84846119c2565b5b80612bfc57508273ffffffffffffffffffffffffffffffffffffffff16612be483611cdf565b73ffffffffffffffffffffffffffffffffffffffff16145b5b90509392505050565b5f818310612c1d57612c188284612e0a565b612c28565b612c278383612e0a565b5b905092915050565b5f805f7f7fffffffffffffffffffffffffffffff5d576e7357a4501ddfe92f46681b20a0845f1c1115612c6c575f600385925092509250612d0d565b5f6001888888886040515f8152602001604052604051612c8f9493929190614344565b6020604051602081039080840390855afa158015612caf573d5f803e3d5ffd5b5050506020604051035190505f73ffffffffffffffffffffffffffffffffffffffff168173ffffffffffffffffffffffffffffffffffffffff1603612d00575f60015f801b93509350935050612d0d565b805f805f1b935093509350505b9450945094915050565b5f73ffffffffffffffffffffffffffffffffffffffff168273ffffffffffffffffffffffffffffffffffffffff1603612d87575f6040517f64a0ae92000000000000000000000000000000000000000000000000000000008152600401612d7e919061313a565b60405180910390fd5b5f612d9383835f611db8565b90505f73ffffffffffffffffffffffffffffffffffffffff168173ffffffffffffffffffffffffffffffffffffffff1614612e05575f6040517f73c6ac6e000000000000000000000000000000000000000000000000000000008152600401612dfc919061313a565b60405180910390fd5b505050565b5f825f528160205260405f20905092915050565b6040518061010001604052805f73ffffffffffffffffffffffffffffffffffffffff1681526020015f73ffffffffffffffffffffffffffffffffffffffff1681526020015f6fffffffffffffffffffffffffffffffff1681526020015f73ffffffffffffffffffffffffffffffffffffffff1681526020015f151581526020015f15158152602001612eae612ec1565b8152602001612ebb612ee7565b81525090565b60405180604001604052805f64ffffffffff1681526020015f64ffffffffff1681525090565b60405180604001604052805f73ffffffffffffffffffffffffffffffffffffffff1681526020015f81525090565b5f604051905090565b5f80fd5b5f80fd5b5f7fffffffff0000000000000000000000000000000000000000000000000000000082169050919050565b612f5a81612f26565b8114612f64575f80fd5b50565b5f81359050612f7581612f51565b92915050565b5f60208284031215612f9057612f8f612f1e565b5b5f612f9d84828501612f67565b91505092915050565b5f8115159050919050565b612fba81612fa6565b82525050565b5f602082019050612fd35f830184612fb1565b92915050565b5f60ff82169050919050565b612fee81612fd9565b82525050565b5f6020820190506130075f830184612fe5565b92915050565b5f81519050919050565b5f82825260208201905092915050565b8281835e5f83830152505050565b5f601f19601f8301169050919050565b5f61304f8261300d565b6130598185613017565b9350613069818560208601613027565b61307281613035565b840191505092915050565b5f6020820190508181035f8301526130958184613045565b905092915050565b5f819050919050565b6130af8161309d565b81146130b9575f80fd5b50565b5f813590506130ca816130a6565b92915050565b5f602082840312156130e5576130e4612f1e565b5b5f6130f2848285016130bc565b91505092915050565b5f73ffffffffffffffffffffffffffffffffffffffff82169050919050565b5f613124826130fb565b9050919050565b6131348161311a565b82525050565b5f60208201905061314d5f83018461312b565b92915050565b61315c8161311a565b8114613166575f80fd5b50565b5f8135905061317781613153565b92915050565b5f806040838503121561319357613192612f1e565b5b5f6131a085828601613169565b92505060206131b1858286016130bc565b9150509250929050565b6131c48161309d565b82525050565b5f6020820190506131dd5f8301846131bb565b92915050565b5f819050919050565b6131f5816131e3565b81146131ff575f80fd5b50565b5f81359050613210816131ec565b92915050565b5f6020828403121561322b5761322a612f1e565b5b5f61323884828501613202565b91505092915050565b5f805f6060848603121561325857613257612f1e565b5b5f61326586828701613169565b935050602061327686828701613169565b9250506040613287868287016130bc565b9150509250925092565b5f819050919050565b5f6132b46132af6132aa846130fb565b613291565b6130fb565b9050919050565b5f6132c58261329a565b9050919050565b5f6132d6826132bb565b9050919050565b6132e6816132cc565b82525050565b5f6020820190506132ff5f8301846132dd565b92915050565b5f80fd5b5f80fd5b5f80fd5b5f8083601f84011261332657613325613305565b5b8235905067ffffffffffffffff81111561334357613342613309565b5b60208301915083602082028301111561335f5761335e61330d565b5b9250929050565b5f806020838503121561337c5761337b612f1e565b5b5f83013567ffffffffffffffff81111561339957613398612f22565b5b6133a585828601613311565b92509250509250929050565b5f602082840312156133c6576133c5612f1e565b5b5f6133d384828501613169565b91505092915050565b6133e5816131e3565b82525050565b5f6020820190506133fe5f8301846133dc565b92915050565b5f61340e826132bb565b9050919050565b61341e81613404565b82525050565b5f6020820190506134375f830184613415565b92915050565b5f8083601f84011261345257613451613305565b5b8235905067ffffffffffffffff81111561346f5761346e613309565b5b60208301915083600182028301111561348b5761348a61330d565b5b9250929050565b5f805f80604085870312156134aa576134a9612f1e565b5b5f85013567ffffffffffffffff8111156134c7576134c6612f22565b5b6134d387828801613311565b9450945050602085013567ffffffffffffffff8111156134f6576134f5612f22565b5b6135028782880161343d565b925092505092959194509250565b61351981612fa6565b8114613523575f80fd5b50565b5f8135905061353481613510565b92915050565b5f80604083850312156135505761354f612f1e565b5b5f61355d85828601613169565b925050602061356e85828601613526565b9150509250929050565b5f80fd5b7f4e487b71000000000000000000000000000000000000000000000000000000005f52604160045260245ffd5b6135b282613035565b810181811067ffffffffffffffff821117156135d1576135d061357c565b5b80604052505050565b5f6135e3612f15565b90506135ef82826135a9565b919050565b5f67ffffffffffffffff82111561360e5761360d61357c565b5b61361782613035565b9050602081019050919050565b828183375f83830152505050565b5f61364461363f846135f4565b6135da565b9050828152602081018484840111156136605761365f613578565b5b61366b848285613624565b509392505050565b5f82601f83011261368757613686613305565b5b8135613697848260208601613632565b91505092915050565b5f805f80608085870312156136b8576136b7612f1e565b5b5f6136c587828801613169565b94505060206136d687828801613169565b93505060406136e7878288016130bc565b925050606085013567ffffffffffffffff81111561370857613707612f22565b5b61371487828801613673565b91505092959194509250565b5f6020828403121561373557613734612f1e565b5b5f82013567ffffffffffffffff81111561375257613751612f22565b5b61375e84828501613673565b91505092915050565b5f806040838503121561377d5761377c612f1e565b5b5f61378a85828601613169565b925050602061379b85828601613169565b9150509250929050565b7f496e736f6d6e69613a204e6f7420696e207068617365203300000000000000005f82015250565b5f6137d9601883613017565b91506137e4826137a5565b602082019050919050565b5f6020820190508181035f830152613806816137cd565b9050919050565b7f496e736f6d6e69613a20416c7265616479206d696e74656400000000000000005f82015250565b5f613841601883613017565b915061384c8261380d565b602082019050919050565b5f6020820190508181035f83015261386e81613835565b9050919050565b7f496e736f6d6e69613a204d617820737570706c792072656163686564000000005f82015250565b5f6138a9601c83613017565b91506138b482613875565b602082019050919050565b5f6020820190508181035f8301526138d68161389d565b9050919050565b5f6060820190506138f05f83018661312b565b6138fd602083018561312b565b61390a60408301846131bb565b949350505050565b5f8151905061392081613510565b92915050565b5f6020828403121561393b5761393a612f1e565b5b5f61394884828501613912565b91505092915050565b7f496e736f6d6e69613a205061796d656e74206661696c656400000000000000005f82015250565b5f613985601883613017565b915061399082613951565b602082019050919050565b5f6020820190508181035f8301526139b281613979565b9050919050565b7f4e487b71000000000000000000000000000000000000000000000000000000005f52602260045260245ffd5b5f60028204905060018216806139fd57607f821691505b602082108103613a1057613a0f6139b9565b5b50919050565b5f606082019050613a295f83018661312b565b613a3660208301856131bb565b613a43604083018461312b565b949350505050565b7f496e736f6d6e69613a204e6f7420696e207068617365203100000000000000005f82015250565b5f613a7f601883613017565b9150613a8a82613a4b565b602082019050919050565b5f6020820190508181035f830152613aac81613a73565b9050919050565b5f8160601b9050919050565b5f613ac982613ab3565b9050919050565b5f613ada82613abf565b9050919050565b613af2613aed8261311a565b613ad0565b82525050565b5f613b038284613ae1565b60148201915081905092915050565b7f496e736f6d6e69613a20496e76616c69642070726f6f660000000000000000005f82015250565b5f613b46601783613017565b9150613b5182613b12565b602082019050919050565b5f6020820190508181035f830152613b7381613b3a565b9050919050565b7f496e736f6d6e69613a204e6f7420696e207068617365203200000000000000005f82015250565b5f613bae601883613017565b9150613bb982613b7a565b602082019050919050565b5f6020820190508181035f830152613bdb81613ba2565b9050919050565b5f81905092915050565b5f613bf78385613be2565b9350613c04838584613624565b82840190509392505050565b5f613c1c828486613bec565b91508190509392505050565b7f496e736f6d6e69613a205369676e617475726520616c726561647920757365645f82015250565b5f613c5c602083613017565b9150613c6782613c28565b602082019050919050565b5f6020820190508181035f830152613c8981613c50565b9050919050565b5f819050919050565b613caa613ca58261309d565b613c90565b82525050565b5f613cbb8285613ae1565b601482019150613ccb8284613c99565b6020820191508190509392505050565b5f81905092915050565b7f5048415345325f4d494e540000000000000000000000000000000000000000005f82015250565b5f613d19600b83613cdb565b9150613d2482613ce5565b600b82019050919050565b5f613d3a8284613ae1565b601482019150613d4982613d0d565b915081905092915050565b7f496e736f6d6e69613a20496e76616c6964207369676e617475726500000000005f82015250565b5f613d88601b83613017565b9150613d9382613d54565b602082019050919050565b5f6020820190508181035f830152613db581613d7c565b9050919050565b7f496e736f6d6e69613a205374696c6c20696e206d696e74696e672070686173655f82015250565b5f613df0602083613017565b9150613dfb82613dbc565b602082019050919050565b5f6020820190508181035f830152613e1d81613de4565b9050919050565b5f81519050613e32816130a6565b92915050565b5f60208284031215613e4d57613e4c612f1e565b5b5f613e5a84828501613e24565b91505092915050565b5f604082019050613e765f83018561312b565b613e8360208301846131bb565b9392505050565b613e938161311a565b82525050565b5f6fffffffffffffffffffffffffffffffff82169050919050565b613ebd81613e99565b82525050565b5f613ecd826132bb565b9050919050565b613edd81613ec3565b82525050565b613eec81612fa6565b82525050565b5f64ffffffffff82169050919050565b613f0b81613ef2565b82525050565b604082015f820151613f255f850182613f02565b506020820151613f386020850182613f02565b50505050565b5f613f58613f53613f4e8461309d565b613291565b61309d565b9050919050565b613f6881613f3e565b82525050565b604082015f820151613f825f850182613e8a565b506020820151613f956020850182613f5f565b50505050565b61014082015f820151613fb05f850182613e8a565b506020820151613fc36020850182613e8a565b506040820151613fd66040850182613eb4565b506060820151613fe96060850182613ed4565b506080820151613ffc6080850182613ee3565b5060a082015161400f60a0850182613ee3565b5060c082015161402260c0850182613f11565b5060e0820151614036610100850182613f6e565b50505050565b5f610140820190506140505f830184613f9b565b92915050565b7f496e736f6d6e69613a20416c726561647920696e2066696e616c2070686173655f82015250565b5f61408a602083613017565b915061409582614056565b602082019050919050565b5f6020820190508181035f8301526140b78161407e565b9050919050565b7f4e487b71000000000000000000000000000000000000000000000000000000005f52601160045260245ffd5b5f6140f582612fd9565b915060ff8203614108576141076140be565b5b600182019050919050565b5f61412d61412861412384612fd9565b613291565b61309d565b9050919050565b61413d81614113565b82525050565b5f6020820190506141565f830184614134565b92915050565b5f6141668261300d565b6141708185613cdb565b9350614180818560208601613027565b80840191505092915050565b5f614197828561415c565b91506141a3828461415c565b91508190509392505050565b5f6141b98261309d565b91506141c48361309d565b92508282019050808211156141dc576141db6140be565b5b92915050565b5f81519050919050565b5f82825260208201905092915050565b5f614206826141e2565b61421081856141ec565b9350614220818560208601613027565b61422981613035565b840191505092915050565b5f6080820190506142475f83018761312b565b614254602083018661312b565b61426160408301856131bb565b818103606083015261427381846141fc565b905095945050505050565b5f8151905061428c81612f51565b92915050565b5f602082840312156142a7576142a6612f1e565b5b5f6142b48482850161427e565b91505092915050565b7f4e487b71000000000000000000000000000000000000000000000000000000005f52601260045260245ffd5b7f4e487b71000000000000000000000000000000000000000000000000000000005f52603260045260245ffd5b7f4e487b71000000000000000000000000000000000000000000000000000000005f52602160045260245ffd5b5f6080820190506143575f8301876133dc565b6143646020830186612fe5565b61437160408301856133dc565b61437e60608301846133dc565b9594505050505056fea2646970667358221220a52ea1d63337d202cf97bc3f7eee7c516e0b13c60bd9c321bab56e13977a503a64736f6c634300081a0033","linkReferences":{}},"methodIdentifiers":{"DISCOUNTED_PRICE()":"8cc6d162","FULL_PRICE()":"0b40cc99","MAX_SUPPLY()":"32cb6b0c","advancePhase()":"be25a718","approve(address,uint256)":"095ea7b3","balanceOf(address)":"70a08231","currentPhase()":"055ad42e","currentTokenID()":"bb62115e","getApproved(uint256)":"081812fc","hasMinted(address)":"38e21cce","isApprovedForAll(address,address)":"e985e9c5","mintPhase1(bytes32[])":"32640963","mintPhase2(bytes32[],bytes)":"97119780","mintPhase3()":"04e06758","name()":"06fdde03","owner()":"8da5cb5b","ownerOf(uint256)":"6352211e","paymentToken()":"3013ce29","phase1MerkleRoot()":"432baad3","phase2MerkleRoot()":"5b440435","renounceOwnership()":"715018a6","sablier()":"482879aa","sablierVesting()":"b16bccc0","safeTransferFrom(address,address,uint256)":"42842e0e","safeTransferFrom(address,address,uint256,bytes)":"b88d4fde","setApprovalForAll(address,bool)":"a22cb465","setPhase1MerkleRoot(bytes32)":"17b3ee1c","setPhase2MerkleRoot(bytes32)":"ab7baf0b","supportsInterface(bytes4)":"01ffc9a7","symbol()":"95d89b41","tokenURI(uint256)":"c87b56dd","transferFrom(address,address,uint256)":"23b872dd","transferOwnership(address)":"f2fde38b","usedSignatures(bytes)":"e949580e"},"id":74}